:100000000010002079140000A5140000A5140000C1
:10001000A5140000A5140000A5140000A5140000FC
:10002000A5140000A5140000A5140000A5140000EC
:10003000A5140000A5140000A51400004104000050
:10004000E50F0000450600005D040000A514000057
:10005000A5140000A5140000A5140000A5140000BC
:10006000A514000051070000D5050000A5140000EC
:10007000A5140000A5140000A5140000A51400009C
:10008000A5140000A5140000A5140000A51400008C
:10009000A5140000A5140000A514000010B5054C1F
:1000A000237833B9044B13B10448AFF30080012324
:1000B000237010BD8000002000000000B01E000072
:1000C00008B5064B1BB106480649AFF30080064849
:1000D000036813B1054B03B1984708BD0000000049
:1000E000B01E0000840000207C0000200000000002
:1000F000154B002B08BF134B9D46A3F5803A0021FA
:100100008B460F461348144A121A01F0B7FE0F4BE4
:10011000002B00D098470E4B002B00D098470020B2
:10012000002104000D000D48002802D00C48AFF358
:10013000008001F07DFE2000290000F075FB01F039
:1001400063FE00BF00000800001000200000000057
:100150000000000080000020E800002000000000F7
:100160000000000080B483B000AF0346FB71084B71
:1001700097F907205209F97901F01F01012000FACF
:1001800001F143F822100C37BD465DF8047B70473F
:1001900000E100E080B483B000AF03463960FB713A
:1001A00097F90730002B0BDA0D49FB7903F00F03A9
:1001B000043B3A68D2B25201D2B20B441A7609E03B
:1001C000084997F907303A68D2B25201D2B20B44CB
:1001D00083F800230C37BD465DF8047B704700BFF1
:1001E00000ED00E000E100E080B582B000AF786093
:1001F0007B68013BB3F1807F01D301230FE00A4B01
:100200007A68013A5A604FF0FF300721FFF7C2FFCA
:10021000054B00229A60044B07221A6000231846FF
:100220000837BD4680BD00BF10E000E080B400AFDD
:10023000BD465DF8047B704780B485B000AF786040
:1002400039607B6803F10473DA003B6813449B0058
:10025000FB60FB681B6818461437BD465DF8047BDD
:10026000704700BF80B483B000AF7860044B7A68F9
:10027000C3F81C210C37BD465DF8047B704700BFF6
:100280000060004080B582B000AF03463960FB716A
:10029000FB79002B0DD0FB79012B0AD0FB79022BC7
:1002A00007D0FB79032B04D0FB79042B01D0FB7919
:1002B000052BFA791346DB0013449B001C3303F132
:1002C000804303F5C04318463968FFF7B5FF03467E
:1002D00018460837BD4680BD80B483B000AF0346E2
:1002E0003960FB71FB79002B0DD0FB79012B0AD013
:1002F000FB79022B07D0FB79032B04D0FB79042B6D
:1003000001D0FB79052B0948FA793B68012101FAF4
:1003100003F319461346DB0013449B0003441033D8
:1003200059600C37BD465DF8047B704700600040A3
:1003300080B483B000AF03463960FB71FB79002BBA
:100340000DD0FB79012B0AD0FB79022B07D0FB796A
:10035000032B04D0FB79042B01D0FB79052B094832
:10036000FA793B68012101FA03F319461346DB00D1
:1003700013449B000344103319600C37BD465DF8ED
:10038000047B70470060004080B483B000AF0C4B2A
:100390001B68002B0DD00A4B1B685A1E084B1A60B5
:1003A000074B1B687B607B68002B00D162B67B68C3
:1003B00000E0002318460C37BD465DF8047B70470B
:1003C000C000002080B483B000AF786039607B68E3
:1003D0003A689A610C37BD465DF8047B704700BFF0
:1003E00080B483B000AF786039607B68DA683B68BE
:1003F000DB431A407B68DA600C37BD465DF8047B4E
:10040000704700BF80B483B000AF786039607B680C
:10041000DA683B681A437B68DA600C37BD465DF8E2
:10042000047B704780B483B000AF786039607B682C
:100430003A68DA610C37BD465DF8047B704700BF4F
:1004400080B400AF044B1B685A1C034B1A60BD46B6
:100450005DF8047B704700BFDC00002080B500AF72
:100460004D480121FFF7AEFF4C4B1B685A1C4B4B0C
:100470001A604B4B1B681A46484B1B689A4204D8BB
:1004800005200421FFF728FF03E005200421FFF7E2
:100490004FFF424B1B68632B02D9404B00221A606E
:1004A000404B1B685A1C3F4B1A603E4B1B68B3F510
:1004B000C87F02D93C4B01221A603C4B1B68002BC1
:1004C00033D1374B32221A60394800F027FC0246FC
:1004D000384BA3FB02139B092F481946FFF7A2FFD5
:1004E000354B1B685A1C344B1A60334B1B68314A1E
:1004F00082FB03125211DB17D21A304B1B689A424F
:1005000013DB2B4800F00AFC03465A092C4BA3FBD3
:100510000213DB0920481946FFF784FF294801210F
:10052000FFF770FF214B01221A60274B1B68002B3D
:1005300031D0264B1B68002B2DD1194B32221A606B
:100540001B4800F0EBFB02461A4BA3FB02139B096E
:1005500011481946FFF766FF1D4B1B685A1C1C4BC0
:100560001A601B4B1B68632B15DD114800F0D6FB8E
:1005700003465A09124BA3FB0213DB09064819462E
:10058000FFF750FF124B00221A60104B01221A6035
:10059000034B00221A6080BD00000140C40000200F
:1005A000A80000209C000020000000200400002083
:1005B000408104001F85EB51B0000020B4000020F2
:1005C000C55A7C0A00040140A0000020BC000020A5
:1005D000B800002080B500AF16480121FFF7F2FEF9
:1005E00001200321FFF74EFE0346002B11D101200D
:1005F0000321FFF79DFE104800F090FB0346DA0947
:100600000E4BA3FB02131B090A481946FFF70AFF0A
:100610000FE001200321FFF75FFE074800F07EFB9B
:100620000246074BA3FB0213DB0802481946FFF7FB
:10063000F9FE80BD0004014040810400598B4F0148
:100640001F85EB5180B500AF00200021FFF71AFE97
:100650000346002B02D1364B01221A6000200021F4
:10066000FFF710FE0346012B05D1314B00221A6023
:10067000304B00221A6001200421FFF703FE0346DD
:10068000012B03D12C4B00221A601BE00120042116
:10069000FFF7F8FD0346002B14D1284B1A68264BB0
:1006A0001B684FF4AA7101FB03F1254BA3FB010367
:1006B0009B091946234B43F82210204B1B685A1CF8
:1006C0001E4B1A601D4B1B68032B29DD184B1B6842
:1006D000002B25D1194B00221A601A4B1A68194BAE
:1006E0005B681A44174B9B681A44164BDB6813442B
:1006F000002B00DA03339B10642202FB03F31A463B
:10070000114B1B68B2FBF3F3C3F164031A460F4BA2
:100710001A600E4B1B68002B02DA0C4B00221A6089
:100720001020FFF79FFD0120FFF79CFD80BD00BF5B
:10073000A0000020BC000020DC000020A40000205D
:100740001F85EB51C800002008000020A8000020F1
:1007500080B500AF02200D21FFF794FD0346012B69
:100760003CD1284B1B68002B38D0274B1B68002B33
:1007700034D1264B1B68002B30D1254B00221A6048
:10078000204B00221A60234B1B68642B06D1214B9F
:10079000C8221A60204B02221A6011E01D4B1B6810
:1007A000C82B07D11B4B4FF4C8721A601A4B042296
:1007B0001A6005E0174B64221A60174B01221A6079
:1007C00016480121FFF70CFE154B00221A60154B4D
:1007D00000221A600C4B01221A600DE002200D214C
:1007E000FFF750FD0346002B06D1074B1B68002B7B
:1007F00002D0054B00221A604FF40050FFF732FD83
:1008000080BD00BF00000020AC000020A000002040
:100810009C00002008000020B400002000040140DB
:10082000B00000200400002080B58AB002AFFFF7BE
:10083000FDFC6D48012100F013FA6C4800F06EFADF
:1008400002466B4BA3FB02135B0B1846FFF7CCFC75
:100850000346002B00D0FEE700F034FE0246654B55
:100860001A60012004210122002300F003FD01236E
:100870000093012004210122012300F091FC0220B9
:100880000D210222002300F0F5FC01230093022039
:100890000D210122012300F083FC0020002102220F
:1008A000002300F0E7FC0123009300200021012237
:1008B000012300F075FC0920FFF754FC0120FFF72D
:1008C00051FC4D48012100F0CBF9012003210A22FF
:1008D000002300F0CFFC494800F020FA0246484BC4
:1008E000A3FB0213DB0847481946FFF79BFD07F1FE
:1008F000100300221A60043300221A60043300221D
:100900001A60043300221A70013301233B7401235F
:100910007B740423BB743B480121FFF773FD0A205D
:10092000FFF720FC07F110033648194600F02AFDB6
:100930003548012100F094F9052004210A22002302
:1009400000F098FC2D4800F0E9F903465A092F4BB6
:10095000A3FB0213DB09184600F0AEFF02460B466C
:10096000104619461EA3D3E9002301F045F90246BB
:100970000B461046194601F027FA0346244819464B
:10098000FFF750FD3B4600221A60043300221A6034
:10099000043300221A60043300221A700133012349
:1009A0003B7001237B700423BB7019480121FFF7C2
:1009B00029FD0220FFF7D6FB3B461548194600F0FB
:1009C000E1FCFFF7E1FC00200021FFF75BFC0346A0
:1009D000002B02D10F4B01221A60FEE7AFF300801B
:1009E0009A9999999999F93F006204005000020080
:1009F0005917B7D1E00000200052040040810400E4
:100A00001F85EB510004014000420400C55A7C0AD6
:100A100000000140A000002080B487B000AFF86063
:100A2000B9607A60FB6803F10473DA00BB681344B1
:100A30009B007B617B697A681A601C37BD465DF854
:100A4000047B704780B487B000AF78607B68002B70
:100A500004D07B68B3F5004F00D800BF7B683B61D2
:100A60003B69B3FA83F3FB60FB68DBB2C3F11F039E
:100A70007B617B6918461C37BD465DF8047B704777
:100A800080B483B000AF1A4B5B6903F4E063B3F545
:100A9000007F14D0B3F5007F05D8002B15D0B3F537
:100AA000807F0FD01AE0B3F5C06F14D0B3F5E06FBC
:100AB0000ED0B3F5407F11D10E4B7B6011E00E4B91
:100AC0007B600EE00D4B7B600BE00D4B7B6008E024
:100AD0000C4B7B6005E00C4B7B6002E000237B60ED
:100AE00000BF7B6818460C37BD465DF8047B704735
:100AF00000800C4040420F00C0CF6A00C0D8A70061
:100B0000809FD500406F4001003FAB0180B582B0AF
:100B100000AF0D4800F0D2F90346FB70FB78072BBD
:100B200005D0082B07D100F0E7FC786006E0FFF75E
:100B3000A7FF786002E000237B6000BF7B68184657
:100B40000837BD4680BD00BF06000C0080B584B0EC
:100B500000AF78600023BB607B68314A934203D0CA
:100B6000304A934200D000E000BF786800F0A6F958
:100B70000346FB607B682A4A934203D0294A93428A
:100B800006D00CE0284B9B6A03F00303FB6006E0F1
:100B9000254B9B6A03F00C039B08FB6000BFFB68BE
:100BA000032B35D801A252F823F000BFD90B000067
:100BB000BD0B0000C50B0000CD0B000000F01AFDBE
:100BC000B86028E000F02AFDB86024E000F07AFC6C
:100BD00003465B08BB601EE00023BB607A68104BD5
:100BE0009A4203D07A680F4B9A4210D10E4B9A6A00
:100BF00079680B4B994201D1102300E0142322FAAB
:100C000003F3002B03D000F0FFFCB86003E002E028
:100C10000023BB6000BFBB6818461037BD4680BDCF
:100C20000200180003001A0000800C4080B483B05A
:100C300000AF7860094B5B6D03F00103002B00D01F
:100C400006E000BF054B1A6D7B681340002BF9D1FD
:100C50000C37BD465DF8047B704700BF00800C4038
:100C600080B586B000AF78600B46FB7000233B6117
:100C70007B681B0A03F00F03013B092B3ED801A23E
:100C800052F823F0B30C0000B90C0000AD0C0000CA
:100C9000FD0C0000FD0C0000BF0C0000C90C0000A2
:100CA000FD0C0000FD0C0000D30C0000154B7B6117
:100CB00012E0154B7B610FE0144B7B610CE0144B91
:100CC0007B6101233B6107E0124B7B6110233B6199
:100CD00002E0114B7B6100BF7B681B0B03F01F031D
:100CE000FB603B69002B02D03869FFF79FFFFB7860
:100CF0007869F9681A46FFF78FFE00E000BF1837E1
:100D0000BD4680BD40800C4008800C4044800C40B3
:100D100058800C4060800C4078800C4090B585B0C5
:100D200000AF78607B6803F47813B3F5901F58D058
:100D3000B3F5901F17D8B3F5802F2FD0B3F5802FC0
:100D400005D8002B26D0B3F5003F33D0A8E0B3F58B
:100D5000602F00F0A180B3F5801F34D0B3F5402F91
:100D600000F096809CE0B3F5D01F7FD0B3F5D01F84
:100D700006D8B3F5A01F7ED0B3F5C01F1ED08FE0FC
:100D8000B3F5181F4ED0B3F5201F62D0B3F5101F76
:100D900035D085E000F0B0FBF86084E000F0ACFBFB
:100DA000F860434B9B6803F00F03FA6822FA03F3E1
:100DB000FB6078E000F086FBF86074E03D48FFF7E8
:100DC000C5FEF8606FE03B48FFF7C0FEF860384BA7
:100DD0009B6E03F0F0031B09FA6822FA03F3FB6031
:100DE00061E03448FFF7B2FEF860314B9B6E03F4CC
:100DF00070631B0AFA6822FA03F3FB6053E02D4884
:100E0000FFF7A4FEF8602A4B9B6E03F440531C0BC3
:100E10001020FFF717FE03462344FA6822FA03F373
:100E2000FB6040E02348FFF791FEF860204B9B6E8B
:100E300003F440531B0BFA6822FA03F3FB601C4BCC
:100E4000DB6F03F007030133FA68B2FBF3F3FB60D7
:100E500029E01848FFF77AFEF860154B9B6E03F007
:100E60000303FA6822FA03F3FB601CE01248FFF761
:100E70006DFEF86017E01048FFF768FEF8600C4B55
:100E80001B6F03F00303FA6822FA03F3FB600AE026
:100E9000FFF73CFEF86006E0FFF7F2FDF86002E0C5
:100EA0000023FB6000BFFB6818461437BD4690BDA9
:100EB00000800C400200180003001A0080B485B0C6
:100EC00000AF78600123FB737B6803F00F03BB6006
:100ED000BB68013B052B79D801A252F823F000BF73
:100EE000F90E00002F0F00006B0F0000CD0F000067
:100EF000CD0F0000A70F0000394BDB6A03F47053DD
:100F0000B3F5805F09D0B3F5005F03D0B3F5006F90
:100F100006D008E00223FB7308E00323FB7305E01F
:100F20000423FB7302E00523FB7300BF51E02C4B4D
:100F30009B6A03F00303022B06D0032B07D0012B7F
:100F400008D10323FB730FE00223FB730CE006239D
:100F5000FB7309E0224B9B6A03F48033002B02D021
:100F60000923FB7300E000BF33E01D4B9B6A03F0D5
:100F70000C03082B06D00C2B07D0042B08D103231D
:100F8000FB730FE00223FB730CE00623FB7309E005
:100F9000134B9B6A03F48013002B02D00923FB73CD
:100FA00000E000BF15E00723FB730D4B1B6803F047
:100FB0008053002B03D0B3F1805F03D009E00723F7
:100FC000FB7302E00823FB7300BF02E00023FB7306
:100FD00000BFFB7B18461437BD465DF8047B7047A5
:100FE00000800C4080B58AB000AF354B03F58053CC
:100FF0001B68BB61324B03F580530C331B68BA6925
:101000001340BB61BB69002B00DAFEE72C4B9B6BE6
:101010007B61BA697B6913403B620023FB6149E055
:1010200000237B623BE03B6A03F00103002B30D0DE
:10103000234B9B683B6101227B6A02FA03F3FB604E
:101040001F4B03F580530833FA681A607B6A1B0153
:101050003A691344DB68BB60BB68002B19D0BB68DE
:101060001B7A7B60BB681B7A83F00103DAB2BB6832
:101070001A72BB681B68002B0BD0BB681B68786AB0
:101080007A68002A0CBF00220122D1B2BA685268E5
:1010900098473B6A5B083B627B6A01337B623B6A31
:1010A000002BC0D17B69DA43BB6913403B62FB690B
:1010B0000133FB61FB69012BB2DD2837BD4680BDE2
:1010C00000200C4080B487B000AFF860B9607A604F
:1010D000FB6803F10473DA00BB6813449B007B6177
:1010E0007B697A681A601C37BD465DF8047B7047DF
:1010F00080B483B000AF03463960FB71FB79002BED
:101100000DD0FB79012B0AD0FB79022B07D0FB799C
:10111000032B04D0FB79042B01D0FB79052B094864
:10112000FA793B68012101FA03F319461346DB0003
:1011300013449B000344103359600C37BD465DF8DF
:10114000047B70470060004080B483B000AF03466A
:101150003960FB71FB79002B0DD0FB79012B0AD094
:10116000FB79022B07D0FB79032B04D0FB79042BEE
:1011700001D0FB79052B0948FA793B68012101FA76
:1011800003F319461346DB0013449B00034410335A
:1011900019600C37BD465DF8047B70470060004065
:1011A00080B584B000AF39600146F971BA717B71C6
:1011B000FB79002B0DD0FB79012B0AD0FB79022B98
:1011C00007D0FB79032B04D0FB79042B01D0FB79EA
:1011D000052B3B68072B13D8224B224AD2F800116B
:1011E0003A6892000F2000FA02F2D2431140F879D7
:1011F0003A68920000FA02F20A43C3F8002115E0AF
:101200003B68083BFB60174B164AD2F80411FA689A
:1012100092000F2000FA02F2D2431140F879FA68E6
:10122000920000FA02F20A43C3F80421BB790E4887
:1012300039681A46FFF746FF7B790C4839681A4629
:10124000FFF740FF074B3A68012101FA02F2C3F8A9
:101250001C213B7E064839681A46FFF733FF1037DA
:10126000BD4680BD00600040086100400C61004048
:101270001061004090B585B000AFB9607B60034657
:10128000FB731346BB73FB7B002B0DD0FB7B012B49
:101290000AD0FB7B022B07D0FB7B032B04D0FB7B0C
:1012A000042B01D0FB7B052BBB7B002B0DD07B6877
:1012B000002B05D0FB7B1846B968FFF745FF04E01B
:1012C000FB7B1846B968FFF713FFBB68072B1DD8D7
:1012D0002B48FA7B2A4CF97B0B46DB000B449B0026
:1012E00023445968BB689B000F2404FA03F3DB43D3
:1012F0001940BC7BBB689B0004FA03F319431346F7
:10130000DB0013449B000344596024E01C48FA7B33
:101310001B4CF97B0B46DB000B449B00234408333A
:101320001968BB6803F18043083B9B000F2404FA53
:1013300003F3DB431940BC7BBB6803F18043083BEC
:101340009B0004FA03F319431346DB0013449B008C
:10135000034408331960BB7B002B0DD17B68002B45
:1013600005D0FB7B1846B968FFF7EEFE04E0FB7B77
:101370001846B968FFF7BCFE1437BD4690BD00BFE4
:101380000060004080B483B000AF786039607A6854
:10139000374B9A4203D07A68364B9A4200D100BF4D
:1013A0003B681B7883F00103DBB2002B02D07B6823
:1013B00002225A607B6800225A623B689B781A06B8
:1013C0003B68DB781B041A433B689B799B021A43FA
:1013D0003B68DB791B021A433B681B7A1A433B6864
:1013E0005B78002B01D0402300E000231A433B68C8
:1013F0005B7A002B01D0802300E000231A433B6876
:101400009B7A002B01D0202300E000231A433B6885
:10141000DB7A002B01D0102300E000231A433B6845
:101420001B79002B02D04FF4005300E000231A4335
:101430003B685B79002B02D04FF0805300E0002323
:101440001A433B681B7B002B01D0082300E00023DC
:101450001A437B681A603B681B78002B02D07B68BC
:1014600001225A600C37BD465DF8047B704700BF0F
:101470000000014000040140064880470649074A31
:10148000074B9A42BEBF51F8040B42F8040BF8E731
:10149000FEF72EFEE9150000BC1E00000000002033
:1014A00080000020FEE700BF80B400AF044BDB6C7F
:1014B0001B0EDBB21846BD465DF8047B704700BFCB
:1014C000B081E00F80B582B000AF00F015F8786011
:1014D000074B5B6803F00F037A6822FA03F37B6023
:1014E000044B7A681A607B6818460837BD4680BD91
:1014F00000800C40E400002080B582B000AF2F4B8C
:10150000DB6A03F47053B3F5805F0AD0B3F5005F74
:1015100003D0B3F5006F08D00BE0294B1B687B604C
:1015200047E04FF400437B6043E0264B1B687B6041
:101530003FE0224BDB6803F4E063B3F5007F1BD090
:10154000B3F5007F05D8002B24D0B3F5807F16D0EB
:101550002BE0B3F5806F09D0B3F5A06F03D0B3F5DE
:10156000407F06D021E0184B7B6021E0174B7B6069
:101570001EE0174B7B601BE0164B7B6018E0FFF70B
:1015800093FF0346122B02D9134B7B6010E0134BE1
:101590007B600DE0FFF788FF0346122B02D9104B4A
:1015A0007B6005E00F4B7B6002E000237B6000BFA7
:1015B00000BF7B6818460837BD4680BD00800C40E0
:1015C000100000200C000020003FAB01406F4001E4
:1015D000809FD500C0D8A70040B56400C0CF6A0086
:1015E000804F120040420F0080B400AFBD465DF84E
:1015F000047B704780B400AF4FF400431846BD46EB
:101600005DF8047B704700BF80B400AF4FF47A737D
:101610001846BD465DF8047B704700BF80B400AF3C
:10162000034B1B681846BD465DF8047B704700BF3E
:101630001000002081F0004102E000BF83F0004371
:1016400030B54FEA41044FEA430594EA050F08BF5D
:1016500090EA020F1FBF54EA000C55EA020C7FEA21
:10166000645C7FEA655C00F0E2804FEA5454D4EB9E
:101670005555B8BF6D420CDD2C4480EA020281EA68
:10168000030382EA000083EA010180EA020281EAA0
:101690000303362D88BF30BD11F0004F4FEA0131F2
:1016A0004FF4801C4CEA113102D0404261EB410101
:1016B00013F0004F4FEA03334CEA133302D0524287
:1016C00063EB430394EA050F00F0A780A4F1010443
:1016D000D5F1200E0DDB02FA0EFC22FA05F280187D
:1016E00041F1000103FA0EF2801843FA05F3594163
:1016F0000EE0A5F120050EF1200E012A03FA0EFCE2
:1017000028BF4CF0020C43FA05F3C01851EBE3710B
:1017100001F0004507D54FF0000EDCF1000C7EEB28
:1017200000006EEB0101B1F5801F1BD3B1F5001F66
:101730000CD349085FEA30004FEA3C0C04F1010485
:101740004FEA445212F5800F80F09A80BCF1004FAE
:1017500008BF5FEA500C50F1000041EB045141EA30
:10176000050130BD5FEA4C0C404141EB010111F431
:10177000801FA4F10104E9D191F0000F04BF0146DC
:101780000020B1FA81F308BF2033A3F10B03B3F1BA
:1017900020020CDA0C3208DD02F1140CC2F10C024A
:1017A00001FA0CF021FA02F10CE002F11402D8BFA8
:1017B000C2F1200C01FA02F120FA0CFCDCBF41EA74
:1017C0000C019040E41AA2BF01EB0451294330BD43
:1017D0006FEA04041F3C1CDA0C340EDC04F1140420
:1017E000C4F1200220FA04F001FA02F340EA0300F7
:1017F00021FA04F345EA030130BDC4F10C04C4F13D
:10180000200220FA02F001FA04F340EA030029461C
:1018100030BD21FA04F0294630BD94F0000F83F466
:10182000801306BF81F480110134013D4EE77FEA49
:10183000645C18BF7FEA655C29D094EA050F08BF95
:1018400090EA020F05D054EA000C04BF1946104676
:1018500030BD91EA030F1EBF0021002030BD5FEABA
:10186000545C05D14000494128BF41F0004130BDE2
:1018700014F580043CBF01F5801130BD01F0004536
:1018800045F0FE4141F470014FF0000030BD7FEAA9
:10189000645C1ABF194610467FEA655C1CBF0B46A4
:1018A000024650EA013406BF52EA033591EA030FBB
:1018B00041F4002130BD00BF90F0000F04BF0021B3
:1018C000704730B54FF4806404F132044FF00005E6
:1018D0004FF0000150E700BF90F0000F04BF00215F
:1018E000704730B54FF4806404F1320410F00045C5
:1018F00048BF40424FF000013EE700BF42004FEAC0
:10190000E2014FEA31014FEA02701FBF12F07F433C
:1019100093F07F4F81F06051704792F0000F14BF39
:1019200093F07F4F704730B54FF4607401F000457D
:1019300021F0004120E700BF50EA010208BF7047D4
:1019400030B54FF000050AE050EA010208BF7047C9
:1019500030B511F0004502D5404261EB41014FF432
:10196000806404F132045FEA915C3FF4DCAE4FF036
:1019700003025FEADC0C18BF03325FEADC0C18BF1D
:10198000033202EBDC02C2F1200300FA03FC20FA6E
:1019900002F001FA03FE40EA0E0021FA02F11444BB
:1019A000C1E600BF70B54FF0FF0C4CF4E06C1CEAD0
:1019B00011541DBF1CEA135594EA0C0F95EA0C0F45
:1019C00000F0DEF82C4481EA030621EA4C5123EAB8
:1019D0004C5350EA013518BF52EA033541F48011E7
:1019E00043F4801338D0A0FB02CE4FF00005E1FB9A
:1019F00002E506F00042E0FB03E54FF00006E1FBE4
:101A000003569CF0000F18BF4EF0010EA4F1FF0426
:101A1000B6F5007F64F5407404D25FEA4E0E6D4166
:101A200046EB060642EAC62141EA55514FEAC52077
:101A300040EA5E504FEACE2EB4F1FD0C88BFBCF5F3
:101A4000E06F1ED8BEF1004F08BF5FEA500E50F1A4
:101A5000000041EB045170BD06F0004646EA01016A
:101A600040EA020081EA0301B4EB5C04C2BFD4EB9C
:101A70000C0541EA045170BD41F480114FF0000E95
:101A8000013C00F3AB8014F1360FDEBF002001F003
:101A9000004170BDC4F10004203C35DA0C341BDC7D
:101AA00004F11404C4F1200500FA05F320FA04F04F
:101AB00001FA05F240EA020001F0004221F0004183
:101AC00010EBD37021FA04F642EB06015EEA430EF6
:101AD00008BF20EAD37070BDC4F10C04C4F1200526
:101AE00000FA04F320FA05F001FA04F240EA0200D9
:101AF00001F0004110EBD37041F100015EEA430EAA
:101B000008BF20EAD37070BDC4F1200500FA05F2C9
:101B10004EEA020E20FA04F301FA05F243EA020348
:101B200021FA04F001F0004121FA04F220EA020057
:101B300000EBD3705EEA430E08BF20EAD37070BD9D
:101B400094F0000F0FD101F00046400041EB01017D
:101B500011F4801F08BF013CF7D041EA060195F05F
:101B6000000F18BF704703F00046520043EB030319
:101B700013F4801F08BF013DF7D043EA0603704706
:101B800094EA0C0F0CEA135518BF95EA0C0F0CD011
:101B900050EA410618BF52EA4306D1D181EA030157
:101BA00001F000414FF0000070BD50EA410606BF51
:101BB0001046194652EA430619D094EA0C0F02D196
:101BC00050EA013613D195EA0C0F05D152EA0336DB
:101BD0001CBF104619460AD181EA030101F00041F9
:101BE00041F0FE4141F470014FF0000070BD41F042
:101BF000FE4141F4780170BD70B54FF0FF0C4CF41C
:101C0000E06C1CEA11541DBF1CEA135594EA0C0F3A
:101C100095EA0C0F00F0A7F8A4EB050481EA030E87
:101C200052EA03354FEA013100F088804FEA03336E
:101C30004FF0805545EA131343EA12634FEA02223C
:101C400045EA111545EA10654FEA00260EF00041FD
:101C50009D4208BF964244F1FD0404F5407402D24F
:101C60005B084FEA3202B61A65EB03055B084FEAE0
:101C700032024FF480104FF4002CB6EB020E75EBDD
:101C8000030E22BFB61A754640EA0C005B084FEA05
:101C90003202B6EB020E75EB030E22BFB61A754682
:101CA00040EA5C005B084FEA3202B6EB020E75EBCD
:101CB000030E22BFB61A754640EA9C005B084FEA45
:101CC0003202B6EB020E75EB030E22BFB61A754652
:101CD00040EADC0055EA060E18D04FEA051545EA41
:101CE00016754FEA06164FEAC30343EA52734FEAEA
:101CF000C2025FEA1C1CC0D111F4801F0BD141EA63
:101D000000014FF000004FF0004CB6E711F4801FC7
:101D100004BF01430020B4F1FD0C88BFBCF5E06FA7
:101D20003FF6AFAEB5EB030C04BFB6EB020C5FEAB7
:101D3000500C50F1000041EB045170BD0EF0004E0C
:101D40004EEA113114EB5C04C2BFD4EB0C0541EA3E
:101D5000045170BD41F480114FF0000E013C90E63B
:101D600045EA060E8DE60CEA135594EA0C0F08BFFF
:101D700095EA0C0F3FF43BAF94EA0C0F0AD150EAFE
:101D800001347FF434AF95EA0C0F7FF425AF104691
:101D900019462CE795EA0C0F06D152EA03353FF4B9
:101DA000FDAE1046194622E750EA410618BF52EA36
:101DB00043067FF4C5AE50EA41047FF40DAF52EA0A
:101DC00043057FF4EBAE12E74A0011D212F5001280
:101DD00011D20DD56FF47873B3EB62520ED44FEA83
:101DE000C12343F0004343EA505323FA02F0704703
:101DF0004FF00000704750EA013002D14FF0FF3041
:101E000070474FF00000704708B5074B044613B108
:101E10000021AFF30080054B1868836A03B198472F
:101E2000204600F033F800BF00000000AC1E0000A8
:101E300070B50E4B0E4D0024ED1AAD101E46AC428F
:101E400004D056F8242090470134F8E700F020F839
:101E5000084D094B0024ED1AAD101E46AC4204D0CB
:101E600056F8242090470134F8E770BD7400002034
:101E70007400002078000020740000200244034613
:101E8000934202D003F8011BFAE77047FEE700BF58
:101E9000F8B500BFF8BC08BC9E467047F8B500BF57
:101EA000F8BC08BC9E4670474300000014000020A8
:041EB000000000002E
:081EB4003CE2FF7F0100000089
:101EBC000100000001000000640000000048E8017F
:101ECC000080000000000000000000000000000086
:101EDC0000000000000000000000000000000000F6
:101EEC0000000000A81E0000000000000000000020
:101EFC0000000000000000000000000000000000D6
:101F0C0000000000000000000000000000000000C5
:101F1C0000000000000000000000000000000000B5
:101F2C0000000000C10000009D0000000000000047
:04000003000014796C
:00000001FF
